S0190000755461736B657253657269616C426F6F742E7372656338
S1130000F0FF0220B136000000F002F800F006FA1A
S11300100AA090E8000C82448344AAF10107DA455F
S113002001D100F0FBF9AFF2090EBAE80F0013F0AA
S1130030010F18BFFB1A43F00103184740000000EA
S113004060000000103A24BF78C878C1FAD852077B
S113005024BF30C830C144BF04680C60704700003E
S11300600023002400250026103A28BF78C1FBD8BD
S1130070520728BF30C148BF0B6070479C00000086
S1130080F001FF1F2001000044000000BC0100003B
S11300901003FF1F2813000060000000FF00000091
S11300A0000000000000000000000000000000004C
S11300B0000000000000000000000000000000003C
S11300C0000000000000000000000000000000002C
S11300D0000000000000000000000000000000001C
S11300E0000000000000000000000000000000000C
S11300F000000000000000000000000000000000FC
S113010000000000000000000000000000000000EB
S113011000000000000000000000000000000000DB
S113012000000000455300004953000053530000F1
S1130130635300006D53000077530000555342533E
S113014000000000000000000000000000000000AB
S1130150000000000000000000000000000000009B
S1130160000000000100000000000000000000008A
S1130170000000000000000000000000000000007B
S1130180000000000000000000000000000000006B
S11301908021017001780906FCD5704700A0064053
S11301A000B0064000C0064000D0064000A00E404B
S10F01B000B00E40000000000000000041
S11304000000000000000000FFFFFFFFBE01FFFF2F
S11304101FB504F052FF1FBD10B510BD04F016FF48
S11304201146FFF7F5FF03F085F804F034FF03B439
S1130430FFF7F2FF03BC04F039FF000010B5F74CDE
S11304406070000100F05BFD606010BD30B5F34CDE
S11304500022636864780BE01D68854205D11D7B2A
S11304608D4202D1521CD0B230BD521CD2B21033D4
S1130470A242F1D3002030BD2DE9F047054699464C
S1130480174688461046FFF7E1FF10B10020BDE88B
S1130490F08700210846FFF7D9FF06001FD0DF4888
S11304A0406800EB06142888103C48B1484600F028
S11304B026FD606020B1298800F045FB0028E6D0C5
S11304C0688848B1484600F01AFDA06020B16988E8
S11304D000F039FB0028DAD0276084F80C8030461D
S11304E0D5E710B5034603E011F8014B00F8014BC2
S11304F0521EF9D2184610BD2DE9F0470E46416848
S11305000446008A15468846A84200D2054635B3FB
S113051029446160E068814214D3A0EB080087B2EB
S11305202168A5EB070901EB0900606003F0F1F80D
S113053086B13A4641463046FFF7D3FFF0194A46A2
S1130540216805E003F0E5F826B12A464146304625
S1130550FFF7C7FF03F0D7F8208A401B208203F07F
S1130560D8F8284693E72DE9F047AC4F089E984603
S11305707868914600EB06108A460025446803F02B
S1130580C2F84046B8F1040F07D0052803D0B8F1EB
S1130590060F16D107E0258A13E04A465146204645
S11305A0BDE8F047A8E7B9F1010F03D1786800EB83
S11305B0061084682CB12068A0606060258A002041
S11305C0208203F0A6F8284661E708B598B103280D
S11305D003D0052814D0002008BD1089ADF8000010
S11305E00020ADF80200106818238D4A017868468F
S11305F0FFF742FF08BDBDE80840104600F0C1BB4C
S1130600BDE80840104600F0BEBF38B51446FF28C8
S11306100DD0401E814AC0B200905268022302EB02
S11306200012107B15680A462146A84738BD0020F1
S113063038BD2DE9F04115468846044603F063F8B9
S1130640228A608A11184B19E18A8B4202D98A1ACC
S1130650121A95B228446082A7682E467819A060C1
S1130660E268904205D3401AA0602188401A281AF3
S113067086B203F04EF8324641463846FFF731FF62
S1130680B54205D0AA1B08EB06012068FFF729FF35
S113069003F039F8608AA84207D1208AA18A084465
S11306A0284420820020A08203E0A18A401B294420
S11306B0A182608203F02DF82846BDE8F081F8B5E8
S11306C0564D60B1FF2833D0401EC0B200906B6815
S11306D003EB0013187B1C680323A047F8BD1646E0
S11306E00C460A7849784E484FF0000C8A4218D1DB
S11306F094F90270F9B2FFF7A9FE90B1696801EBB1
S11307000010E17850F80C0C03290CD03246214635
S1130710FFF78FFF04460421384600F035FD2046DC
S1130720F8BD6046F8BDC18A008A081A80B2F8BDD7
S11307300020F8BD38B5401E384BC0B200905B684D
S113074003EB0013187B1C680423A04738BD38B59D
S1130750401E3249C0B200904968052301EB0011E4
S11307600022087B0C681146A04738BD38B51546F1
S1130770401E2A4AC0B200905268072302EB0012BE
S1130780107B14680A462946A04738BD38B5401E78
S1130790224AC0B200905268062302EB0012107B7A
S11307A014680A460021A04738BDFF2805D01B491C
S11307B0496801EB001010F8040C70471CB50028C0
S11307C010D000228DF800208DF801208DF8020051
S11307D001208DF803008DF80410052269460020DD
S11307E0FFF76DFF1CBD1CB500238DF800308DF89C
S11307F001308DF8020001208DF804008DF80310FB
S11308008DF80520062269461846FFF758FF1CBDDF
S113081030B40C460022034606E00000F001FF1F3E
S113082067050000521C92B213F8011B0029F9D18C
S11308301AB10146204630BC41E730BC0020704765
S1130840C8490978E4E7F0B50446C74B00251046CB
S11308508A064FF0200703D500F8017B21F0080138
S11308604E074FF00A0C4FF0300225D5002C23DA46
S113087064422D2600F8016B1EE000BFB3FBFCF3BD
S11308801DB9012B08D14E0602D500F8012B03E057
S11308900E0701D500F8017BA342EFD803B101256F
S11308A0B4FBF3F606F0FF0E0EFB1344B3FBFCF3AC
S11308B00EF1300600F8016B002CEDD104E000BF0E
S11308C0B3FBFCF300F8012B13B1002DF8D100E0C9
S11308D055B90B0702D500F8017B05E04B0601D59D
S11308E000F8012B00F8012B0A0604D50D2200F8AC
S11308F0012B00F801CBC90601D400210170F0BD21
S11309001FB56A46FFF79FFF6846FFF799FF1FBDB3
S113091070B5054610F0070000D10820B5EEC00AF6
S1130920F2EE040AF1EE10FA10EE102A2BD245F082
S11309300401B2F14F4F02D34FF0004020E0BDEE6E
S1130940C01A11EE102A01EE102AB8EEC11A30EEC8
S1130950010A01E020EE200A401EFBD2BCEEC00AD0
S113096010EE104A0CB121F080011046FFF7C8FFC9
S1130970002C20D07DA0FFF763FF25F06C012046FA
S1130980BDE87040BCE725F00401B2F19F4F02DBE3
S11309904FF0FF30F4E7BCEEC01A11EE102A01EE5E
S11309A0102AB8EE411A30EE410A01E020EE200A86
S11309B0401EFBD2D2E770BD70B5002306461D462B
S11309C01C46880602D5202002F8010B080705D52D
S11309D0302002F8010B782002F8010BC80600D47D
S11309E00123480600D50125080600D5012401F09D
S11309F00700042800D9042041000DE0880026FAED
S1130A0000F000F00F003030392803D90DB1C01DBB
S1130A1000E0273002F8010B491EC9B2EED22CB116
S1130A200D2002F8010B0A2002F8010B0BB1002083
S1130A301070104670BD1FB56A46FFF7BDFF6846CB
S1130A40FFF7FEFE1FBD002100E0401C0278202AB3
S1130A50FBD009E0303A0901D2B2401C092A02D97C
S1130A60D21F02F00F02114390F90020302AF1DA6C
S1130A700846704710B50023194607E012B12D2A25
S1130A8002D002E0002010BD0123401C90F9002098
S1130A90A2F130040A2CF1D205E04C0004EBC101B0
S1130AA030391144401C90F90020A2F13004092C83
S1130AB0F3D913B1C843401C10BD084610BD10B58E
S1130AC0034601E000F8011B521EFBD2184610BD7C
S1130AD010B507E010F8013B11F8014BA34201D017
S1130AE0012010BD521EF5D2002010BD10B54FF0EC
S1130AF0FF330DE091F90040A24207D090F90000C5
S1130B0091F9001088420ADD012010BD401C491CE7
S1130B1090F90020002AEDD108780028F5D0184675
S1130B2010BD0A7800F8012B11F8012B002AF8D126
S1130B30401E70470146002000E0401C11F8012BC4
S1130B40002AFAD1704770B504460D46084600F0F5
S1130B50D6F9002805D0206041196060C4E902017B
S1130B60E58270BDF001FF1F00CA9A3B2E00000011
S1130B7010B50C46097F8A0710D0C90701D011218E
S1130B8000E0132103F0FAFA10F0FF0F05D1207FE3
S1130B9020F0030040F04000207710BD8A0618D4EE
S1130BA0228A9AB16168097803F0E8FA207F40F05C
S1130BB0400020776068401C6060E168884201D38F
S1130BC020686060208A401E208210BD21F0400110
S1130BD02177BDE8104003F0E1BA2DE9F0479846CB
S1130BE015460F4681460026089C02F08CFDA8F1AC
S1130BF00200DFF8D88205282AD2DFE800F00338A3
S1130C005B2A8400F804D8F8000000EB041001D536
S1130C10846800E04468D5B1E80703D0484603F08F
S1130C203DFB04E0A80702D5484603F085FB6807AE
S1130C3003D5484603F0DCFA04E0280702D5484609
S1130C4003F024FB680602D507F07F006077668B0B
S1130C507FE0D8F8000048F2800200EB04104068FE
S1130C60418B114201D0068B73E0068A71E0D8F8FB
S1130C70000000EB0410846877B102F04AFD2A46B4
S1130C8039462046FFF7D5FC054602F03CFD207F9F
S1130C9010F0600F07D00AE0E08A218A401AA842C7
S1130CA057DB86B255E021464846FFF761FF02F064
S1130CB030FD25E0D8F800002A4600EB0410394640
S1130CC046683046FFF718FC718B054611F0600F3B
S1130CD016D0307FC20613D5328A142A10D220F0DF
S1130CE01000307788060BD5D8F8000000EB04100C
S1130CF08168087F40F0010008774846FFF738FF15
S1130D002846BDE8F087D8F800001DB100EB0410B8
S1130D10806818E000EB04114868027FD30612D5FE
S1130D2022F0100202778968887E800606D5087F43
S1130D3040F0010008774846FFF71AFFD8F8000092
S1130D4000EB041040680168816041600021018269
S1130D50018302F0DEFC3046D3E770B5054620205F
S1130D6000F0CDF804000BD0284600F0C8F820604D
S1130D70002805D0A06060602844E060E582204639
S1130D8070BD2DE9F041044651480F468046A179D3
S1130D90FFF75CFB060004D0780708D43046BDE8B2
S1130DA0F08100210846FFF751FB0600F7D04748C1
S1130DB0006800EB0615B80745F8108DDFF81481BC
S1130DC006D5A088FFF7C9FFA27948F82200A860D9
S1130DD0F807404F07F1180706D06088FFF7BDFFFA
S1130DE0A17947F821006860A17958F8210008B179
S1130DF021884183A07957F8200030B1217A4177C6
S1130E00A179208857F821104883A0792873A07904
S1130E10214603F099FAC1E70A4670B52D49183105
S1130E2051F822401839A37E51F822109B0603D5AD
S1130E30132838D011283BD0238AE58AAB420BD241
S1130E405B1C2382A3681870A068401CA060E36840
S1130E50984201D32068A060608B10F0600F14D01A
S1130E60237FDB0611D4E38A258A143B9D420CDDE3
S1130E70800606D5087F40F0020008771046FFF789
S1130E8077FE207F40F010002077608B48F28001CD
S1130E9008420CD194F91D00002808D0BDE8704028
S1130EA0042100F071B9087F40F02000087770BD7C
S1130EB0087F8306FBD520F020000877BDE870404A
S1130EC0104655E6034951F8201051E6F401FF1F7E
S1130ED0DB0B00001003FF1F2E4A10B50023138004
S1130EE02D4B516091601C7802E0002B06D0001D50
S1130EF00378A342F9D140880844906010BD70B5CE
S1130F00244D0646298868684418A00702D024F0B6
S1130F100304241DA968A019884201D3002070BDD0
S1130F20324600212046FFF7CAFDA888201A304423
S1130F302880204670BD70B5164D06462A8868681C
S1130F408418481E044201D084430C44A968A019A3
S1130F50884201D3002070BD324600212046FFF7AD
S1130F60AEFDA888201A30442880204670BD002198
S1130F70018008467047074801898088081A80B2B2
S1130F8070470448018982880088891A081A80B247
S1130F9070470000F801FF1FB802FF1F2DE9F74F4B
S1130FA00025DFF888838346E148C8F80850C8F86C
S1130FB00C502E462F46A9460C464FF0040A0078E2
S1130FC03FE0C9B2814202D036E06D1CEDB214F8A4
S1130FD0010F0028F9D105EB85010AEB8100FFF729
S1130FE08EFF621B521EC8F80C001EE0594619E021
S1130FF094F900409C4214D14B6843600B68036031
S11310000B8903810BB17F1CFFB24C8944818B890E
S11310108381897BC17304B90BB1761CF6B2143099
S113102003E010310C68002CE2D112F9013F002BCF
S1131030DCD1C0F8009007E014F8011F0029FBD1AF
S1131040641C21780029BCD1D8F80C004446A0B314
S113105056B306EB46010AEB8100FFF750FFA06090
S11310604FF6FF784FF0010CE16815E04B89002240
S113107033B1434501D1A1F80A904A89426002E0A4
S11310808B890BB14360012243680BB180F809C01E
S11310900AB140F80C1B14310A68002AE6D1A6EB09
S11310A0860100EB8100A06002983844C0B2FFF7CB
S11310B0C5F917B1FF27E6680BE00DE0308938B1B8
S11310C0324601210320FFF780FAB07300B9B773E9
S11310D0143630680028F1D1944802F0F0FAC4F8CC
S11310E0049002F040FB2846BDE8FE8F8F49088833
S11310F000F00102524202F4344282EA50000880B5
S113110070477CB589480025C4682AE0E07B10F06C
S11311100D0F25D002F0F7FAA08910B9E07BC007C3
S113112019D1207C90B18DF800508DF801502068C1
S11311300522694600788DF802008DF80350207C62
S11311408DF804000020FFF7BAFA2574E07B10F054
S11311500A0F00D1E57302F0DCFA61682046884783
S1131160143420680028D1D17CBD7049C96806E0D8
S113117092F90020824201D1C87B704714310A6879
S1131180002AF5D18020704770B5684EF46822E0DB
S113119092F9002082421DD1A9B9B56885B912E03F
S11311A0A0420CD102F0AFFAA08910B171680844D2
S11311B068600020E073BDE8704002F0AABA0C3504
S11311C028680028ECD1480702D5E07B000700D44A
S11311D0E17370BD14342268002AD9D170BD2DE9A1
S11311E0F041524F90460E46BC68002C27D0FD6853
S11311F028E000BF91F9001081421DD021E0A842EF
S113120019D102F080FAE87B20F00200E8735FEA6B
S11312100800207201D026B104E0AE8116B9002086
S113122004E0012678683044606001206072BDE803
S1131230F04102F06EBA0C3420680028DFD1BDE81A
S1131240F081143529680029D4D1F8E770B5374DF9
S1131250AC68F4B1E96819E092F90020824210D038
S113126013E088420CD102F04EFA607A18B160683B
S11312706968441A00E0002402F04BFA204670BD6D
S11312800C3420680028ECD103E014310A68002AE9
S1131290E2D1002070BD70B524498D68002D19D0AD
S11312A0CC6819E091F90010814210D013E0A042FB
S11312B00CD102F028FA002028726872E07B40F01A
S11312C00200E073BDE8704002F023BA0C352868D0
S11312D00028ECD170BD143421680029E2D170BD1E
S11312E070B51249D1E90120521C4A6000281BD074
S11312F0042300240268002A16D0457A95B1456873
S11313004E68B5420ED1D57BAE0704D42D0700D468
S1131310D373057A157492891AB145682A444260D8
S113132000E044720C30E5E770BD00000402FF1FCA
S1131330B802FF1F02F028BA2DE9F0479946074684
S11313400D4603EB8900FE49496801EBC004E08ABD
S113135010B10020BDE8F0872283954200D91546DC
S1131360E582A08AA84201D2608200E065820898E2
S1131370668A6FF07C48C06808EA064242F0800240
S113138007600898816840684968114301600899BA
S11313908868426882F0400242608868816881F00F
S11313A0400181603146E06800F050FD676031E043
S11313B0E06820B1806990F8240002282ED208A9A0
S11313C0484602F058FC48BBA81B3744A68A85B29D
S11313D0AE4200D32E46089808EA064242F0800244
S11313E0C0680760089881684068496811430160D3
S11313F008998868426882F040024260886881687F
S113140081F0400181603146E06800F01FFD608A90
S113141030446082E08A618A8842C9D1E08A99E7CF
S11314202DE9F04387B0984616460F4681460024BE
S11314300E9D02F068F9A8F10201C24805291AD2EA
S1131440DFE801F003206E1A91000068F90400EB54
S1131450051001D5806800E04068710608D58169EF
S113146091F82120D20703D007F07F0281F82020D1
S1131470806990F8214082E0006800EB0510406824
S1131480048A7CE0006800EB05108568EDB1A8696A
S113149090F82100C00772D02FB301A8069002F083
S11314A038F9324639462846FFF7C3F8044602F0B5
S11314B02AF9A86990F82100400660D406A9484694
S11314C002F0D9FBB0B1002459E001A8069006A9A6
S11314D0484602F0D0FB10BB0698324600904B46BB
S11314E01146384618E0E88A298A401AB04246DB99
S11314F084B244E0A889A988401A81B2A8698C42C0
S113150010F8212F42F04002027000D221460698C2
S113151000904B460A466868FFF70EFF04462EE02B
S11315200068324600EB0510394644682046FEF751
S1131530E3FF0546A06990F8210040070FD502F0AB
S1131540E2F8A06910F8211F21F004010170A069DC
S1131550807E02F039FC0028F9D002F0DAF828463F
S113156007B0BDE8F083006800EB05100EB1806899
S113157000E040680168816041600021018202F05E
S1131580C8F82046ECE72DE9F0410546AFF26F12AA
S11315906B4F817B1C23001D7C68FEF76DFF0646A4
S11315A0A87B60B100EB800004EBC004A889A08292
S11315B0A87AC00615D5202084F8220011E0687CA2
S11315C0401C00EB8000C000FFF799FC04467860E3
S11315D00820A082A87C84F820002946002002F07C
S11315E027FC5849086800EB061050F8080CE06026
S11315F010B1846128892082A87BA076A87B60B181
S1131600E87B50B17B6800EB800203EBC204A07658
S1131610A87B84F82300A889A082086800EB061040
S113162050F80C0CA06018B18461A87C84F82000E8
S1131630286820603046BDE8F08110B5CB0709D09A
S113164010F8013B138010F8014B43EA042322F8FD
S1131650023B00E0801C8B0709D510F8013B138086
S113166010F8014B43EA042322F8023B00E0801CFB
S1131670490705D501781180407841EA002010809F
S113168010BD7CB50446806990F8200000281AD06B
S1131690208A884217D800258DF800508DF8015013
S11316A0A0690522694690F820008DF80200012007
S11316B08DF80300DD208DF804002846FEF7FFFFB7
S11316C0A06980F820507CBD70B585780B4604462F
S11316D002791B4E05F07F01C07805F08005284390
S11316E0766801EB810506EBC505667942EA0622B8
S11316F002F0F2FAE07830B195F8220040F00100EF
S113170085F8210070BD1120FAE770B50C4A807885
S1131710002300F07F01526801EB810002EBC0045A
S11317201A46FF20E56802F0D7FA002184F8211058
S1131730E18284F8241045B129822868A86003E076
S11317401402FF1FF401FF1F6860A068002803D083
S1131750018201688160416070BD2DE9F84F064641
S1131760994693468A4601250024684601F0E3F829
S11317700278BDF80010891A8FB2ADF80070417874
S1131780022904D0042913D0052951D124E02EB113
S113179000214379B34203D1012302E00121F8E798
S11317A00023194302D00124002541E000243FE036
S11317B0ACB3BAF1FF0F02D08378534538D1BBF1F3
S11317C0FF0F02D0C3785B4504D10224B9F1000FA6
S11317D033D02DE003242BE00CB35FEA090127D0BA
S11317E0022C02D000239E461BE00123FBE700BF2E
S11317F090F802C093F802800CF07F0C08F07F0888
S1131800C4450DD1BEF1000F12D193F804C05B7929
S11318104CEA0323B1F804C09C4509D28B8007E04D
S113182008310B68002BE3D1BEF1000F00D0086033
S11318301044002F9CD115B10020BDE8F88F484614
S1131840FBE7F0B5A1B00F460646002480222146EE
S11318506846FFF734F96B460022FF213846FFF74C
S11318607CFF6D46B0B9012021B0F0BDBEB1F7498F
S11318708078012E496800F07F0000EB800001EBC6
S1131880C00010F8211F14D021F0020141F0010121
S11318900170641C55F834000028E7D1E4E72FB147
S11318A005EBC4018988FFF70FFFF2E7FFF72DFF6F
S11318B0EFE721F0010141F00201E9E72DE9F041F0
S11318C00E46E24900EB80001546496801EBC0046E
S11318D027682FB11A4629463046B84707280ED143
S11318E0A06800280BD094F9200010B10421FFF760
S11318F04BFC94F82110A0684A0701D501209AE610
S1131900C28A038AD21AAA4205DB2A463146FEF766
S113191090FE00208FE641F0040084F82100EDE7FA
S11319202DE9F043C94DA1B0914606460F46022861
S11319300AD00024802221466846FFF7C0F8E84612
S11319404EB1012E28D115E0287821B00023BDE83E
S1131950F043012201E74346FF2239462878FFF786
S1131960FCFE02E0FFF7D1FE641C58F834000028A6
S1131970F8D111E043464A4639462878FFF7EDFE90
S113198030B9012021B0ECE50021FFF79DFE641C75
S113199058F834000028F7D10020F3E72DE9FC477C
S11319A0AA4F1C4691467E684FF0000807283ED295
S11319B0DFE800F0F6F4F304F2F1F00009EB89003B
S11319C006EBC006F08AF56898B1718A81427CD32F
S11319D0002D7BD0298A002978D0A86900F043FA29
S11319E0298A081A82B22A82A969002791F8240058
S11319F023E0002D1BD0288A98B1E96868688842E2
S1131A0002D3E98A401A6860A8896E68801B81B293
S1131A10288A884200D2014600934B460A46304643
S1131A205BE0A86910F8211F21F040010170F7E183
S1131A3001EB40039B8B3B449FB2401EF8D2BA4259
S1131A4031D17ABB3021484600F021FAB8B1F08A8E
S1131A50B18AB0FBF1F201FB120080B9A0686168A1
S1131A60406840F088000860A0680127416881F060
S1131A7040014160A068816881F040018160F18A81
S1131A80686808446860E968884202D3E98A401AB1
S1131A906860A6F816802FB9A86910F8211F21F0F4
S1131AA0400101701BE0F18A686808446860E968D5
S1131AB0884202D3EB8AC01A6860A888081A81B2E7
S1131AC0D01B884200DA81B201E02FE00DE0A6F8D5
S1131AD0168000944B460A466868FFF72DFCA869F7
S1131AE0018A2846FFF7CDFD9AE1B18AB0FBF1F2F5
S1131AF001FB1201B9B9318B814204D1202148463E
S1131B0000F0C5F978B1A0686168406840F08800C9
S1131B100860A068416881F040014160A068816864
S1131B2081F040018160A6F8168079E1401A87B2FD
S1131B30B08AB84200D8074655B1A86900F093F9B5
S1131B40298A081A2882A869018A2846FFF799FD7C
S1131B50718A70680844E1680860A0686FF07C418D
S1131B6001EA0741406841F0800108436168086068
S1131B70A068416881F040014160A068816881F0FB
S1131B80400181603946284600F060F9708A384483
S1131B90708245E13FE13AE12DE120E121E1FFE7F7
S1131BA00A78481CA6F8168032F080010DD001296D
S1131BB079D0022978D03368002B54D0218A0022AE
S1131BC0401E02B0BDE8F047184710F8011B054657
S1131BD00A2978D2DFE801F070777777773C0577C8
S1131BE06A3F681C297810F8032B41EA022110F897
S1131BF0012B037842EA032501F47F42B2F5807F8A
S1131C000CD0B2F5007F0DD0B2F5407F0ED0336812
S1131C10002B28D00022218A801FD2E701A800F0DF
S1131C2085FE09E001A800F086FE05E0C8B201A91E
S1131C3000F08CFE002816D0BDF8041000232A46BC
S1131C40009400BFFFF778FBEAE000001402FF1FD6
S1131C502878987462E0297839700020FFF7F1FD44
S1131C6010B187F800808CE07868FE24294690F94A
S1131C7020600122DEB30DF10600FEF732FC8DF880
S1131C8000808DF801808DF8026075208DF80300C6
S1131C9002208DF804008DF80540072269460020D3
S1131CA0FEF70DFD3AE014E057E00CE0009300234A
S1131CB0012211467C48C5E7009302227A4800239A
S1131CC01146801CBEE73368F3B30022218AA81EA4
S1131CD077E7754910F8012B0978B2B30A2A20D0A6
S1131CE00B2A05D033687BB3218A00223EE015E03D
S1131CF051B36A460321FFF7A0FCBDF80200FF229E
S1131D00C1B20020FFF70CFEBDF80000C2B2BDF85E
S1131D100200C1B20120FFF703FEA8B90320BDE809
S1131D20FC8789B101AA0221FFF787FCBDF80400F2
S1131D300022C1B20220FFF7F3FD28B101220023E3
S1131D401146C01C00947DE71BE0FFE7C9B1009376
S1131D50002302221146554874E710F8015B3DB197
S1131D60012D05D0336863B103220821801E28E7C2
S1131D7001AA0221FFF761FC387820B9BDF80400FC
S1131D8008B10420CBE7BDF80410012D01F01F00B9
S1131D9000EB800006EBC0000AD090F8210000940C
S1131DA00007D5D50222414800231146801C49E78B
S1131DB090F82120130733D522F0080280F821205F
S1131DC07868006810B3C8B28DF8000001F065FDB2
S1131DD07868042200210368684698479FE7208AB0
S1131DE010B11A8A012301E00223002202B04846FE
S1131DF0BDE8F04762E5987C20B196F92000CC213B
S1131E00FEF7DCFC00210846FFF71BFD08E096F90D
S1131E102000CB2102E096F92000CA21FEF7CEFC77
S1131E2000207CE7204A00EB8000526802EBC000EF
S1131E3010F8212F0A43027070471B4900EB800001
S1131E40496801EBC00090F823007047002809D0CE
S1131E5082691C2392F8240003EB4003401C82F89F
S1131E602400D152704710B50121828B05E000BFD8
S1131E7000EB4103491C9C8B5C8390F824308B421B
S1131E80F6DCD9B2491E80F82410104610BD064A6B
S1131E9000EB8000526802EBC00090F8210008407B
S1131EA000D00120704700001402FF1FC45200003C
S1131EB02DE9F041FB4C002211466078FEF7FFFB50
S1131EC005464FF4007604F12407206916E000214A
S1131ED0A078E26802F0BCFF68B9A078324657F8EF
S1131EE0200041696078FEF7EAFBE068A5F500751B
S1131EF0401CADB2E0602069401E206110B1B542C3
S1131F00E5D209E00D2D07D36078BDE8F041E5493D
S1131F100D227431FEF7D3BB6078BDE8F04141F285
S1131F2075024021FEF771BB10B50446DD4800215F
S1131F30343050F8240002F0B0FADA483C3050F85B
S1131F402410103850F82400091A02F0A6FAD549D2
S1131F500020443141F8240010BD052102E0491E4F
S1131F600ED02030C27A202AF9D1017FC27F01EB42
S1131F700261827F407F120402EB00200844704714
S1131F80012070472DE9F047DFF81883064608F171
S1131F902408924658F826000C46456D2BE00F287D
S1131FA028D0202826D0800724D52878E52821D0D9
S1131FB0687D297D000640EA0140E97E574640EAF3
S1131FC00120A97E40F6FF79014358F82620C80075
S1131FD01038D26833461044874205D3083087420C
S1131FE002D20220BDE8F087184600F083FD0146C6
S1131FF04845EAD12035E87A0028D0D120787B28DA
S113200009D194F84A007D2805D1607818B9E078A0
S113201008B9607918B1207A4D2818D101E003205D
S1132020E0E7607A612812D1A07A63280FD194F88E
S1132030540041280BD194F85500542807D194F842
S11320405600542803D194F85700522810D0204643
S113205000F045FD94490844B0F5802F0AD2201DB4
S113206000F03DFD401EB0F5002F03D20120B9E77A
S11320700420B7E70020B5E72DE9F74F8949044666
S11320802431154651F8246001F120074FF000096E
S1132090B068A1F10808821CAA425BD857F8241042
S11320A0BB46012955DCA7F1180A804A5AF82410C6
S11320B0281A02EB40200F18A8F11801085D10B18E
S11320C0012803D015E048F824900BE058F82410B8
S11320D041B148F824902A4620460199FFF752FF5F
S11320E0012802D00020BDE8FE8F6E480221001DA9
S11320F001556C484C3000F1080150F8242002B11D
S113210007E05AF82420BA1A41F82420012240F8A2
S1132110242051F824006349381A3C3151F8241022
S113212081420DD95AF82410814209D8C0F51E22E3
S11321304FF400718A4200D90A46019902F0C5F9A8
S1132140201DC2B21E217520FFF749F801204BF86B
S113215024002CE0A8422AD88A46716D281A01EB83
S113216040204FF400720199FEF7BBF957F82400A0
S113217002281CD15AF824000021406D024603783D
S1132180E52BC37A0AD0202B03D02030491C102918
S1132190F5D31046FFF7E1FE30B108E0202BF4D16F
S11321A02046FFF7C1FE8EE72046FFF7BDFE306AEA
S11321B0A84288D13E484FF4007200EB44200199B4
S11321C0FEF78FF97FE770B5364D0446686988BB22
S11321D0042221463748FEF77BFC60BB607B05F197
S11321E02401A87051F82050002100F06EFC10B3B7
S11321F0A07B401E0F2852D8207B4FF0F00201062E
S11322002B48E17BA0F13C004FF002034FF03A066B
S113221024D523291DD006DC03292BD0122929D04B
S11322201A292CD108E0252924D0282911D0A8293D
S113223025D10EE01EE032E0207C04F10F054009B8
S1132240002100F042FCD0B1A878C043800611D030
S113225015E0297E11F0880F0CD10DE01E2909D05C
S113226003DC39B11B290AD104E02A29F1D0AA29B7
S113227005D1EEE7072070BD027083700673094D27
S113228004227435211D281DFEF72BF9042204F1C4
S1132290080105F10800FEF724F901202873042041
S11322A070BD00001C02FF1FFFFF00E000FCFFFFE9
S11322B07C03FF1FC95200002DE9F041FF4C0D467D
S11322C000267AB1022A39D0042A2FD10078822834
S11322D005D10D2204F174016078FEF7F0F90320B2
S11322E0BDE8F081037823F08001212913D181799D
S11322F0C2791B0641EA0227E7800CD54378FE2BFE
S113230002D0FF2B07D10DE0837823B9C07810B930
S1132310012900D10AB10420E2E70122E84920782A
S1132320FEF7CDF9082D0DD9083DADB2E0880021A6
S113233000B1E170854203D3E18003E00020CFE7E0
S1132340401BE0803046CBE72DE9F05F0646DB48D2
S1132350443050F82600022849D1D848DFF8648375
S1132360343006EB860708EB870450F826504FF00C
S11323700109A0F1080A84F810905AF82600606058
S1132380E87A4FF4F03BFF280CD02846FFF7E5FD30
S113239048F8270004F10C03414628469A1C4FF0E4
S11323A0050C0BE048F827B00020E081A081C6A00E
S11323B01CE000BFBCF1010C0BD0203090F80B8066
S11323C0B8F1200FF6D1B0F810C0A2F800C0C0894F
S11323D0188051F82700B0F51E2F0AD95AF82600A4
S11323E0606041F827B084F81090BBA0A060BDE8FD
S11323F0F09F2035A56084F81190F8E72DE9F04F9F
S1132400A9B0DFF8B882807B209098F8000008F12A
S1132410340B08F124094FF0000A002852D108F1C6
S11324202C064FF4002030604FF47E21CBF80010CE
S113243006F110024FF41E2111604FF4FC21C6F87E
S113244004A04FF4F030CBF804105060012044464F
S1132450871E4D46C8F80800A078042221A956F822
S1132460200002F039F82198401C05D0934802213D
S1132470A278443040F82210A078FFF765FFA078D6
S113248002F00AFEA17845F8210021B92868028BE0
S113249022F01002028355F82100394602F0E7FCCD
S11324A0A07880B155F820000B228EA1406D00BFAA
S11324B0FEF717F8A078401CC0B2A0700228CBD356
S11324C000F05BFBACE028680B2289A1406DEFE7CC
S11324D09DF8030088B3012802D07528F2D18BE05F
S11324E09DF80400CA2822D0CB2818D0CC2802D0CA
S11324F0DD281BD122E071485446454608220021BC
S11325001C30C8F814A0FEF7DAFA6C482C610222D9
S11325100021001DAC61FEF7D2FA78A004E000218E
S11325200120FFF78EF978A0FEF78AF978E0002100
S11325300220FFF786F978A0F6E702E0FFF7B8FC7F
S11325406EE09DF80460042E01D0052E68D1361F7C
S1132550002559F826002C462A46476D2946284668
S113256001F0B3FF3878E52805D0F87A0F2804D0B5
S113257010F00A0F01D0002503E025B120342028F3
S113258004D02037EEE73D462024F8E72120B87632
S1132590602C02D803E0203C2035202CFBD859F8CD
S11325A026005F462022416D5BF8260001F08DFF76
S11325B057F8260022462946203001F086FF3F4D79
S11325C02C350BE02022002121A8FEF778FA55F8DB
S11325D026002022204421A901F077FF2034802CFA
S11325E0F0D300221146104601F06FFF3349022058
S11325F0443141F8260013E09DF804200DF1050153
S11326002098FEF797F89DF80500FE2808D146A00B
S1132610FEF716F9294802220121001DFEF74FFAA0
S1132620052269462098FEF785F800287FF450AF0C
S113263044466078FEF78BF8002823D0606938B3ED
S1132640A069C0F500718AB23B4901446078FEF785
S113265071F86169091A6161A2691044A061B0F559
S1132660007F12DBE2683449501CE060A078FFF779
S113267003FDC4F818A06069002808D0042175205F
S1132680FEF782FD29B0BDE8F08F0029D1D128E101
S1132690802269466078FEF74DF8084F04227437AB
S11326A03D46381D01A9FDF71CFF85F808A085F8F3
S11326B009A0564685F80AA040E000001C02FF1F4E
S11326C0C85200005403FF1F6669726D776172651A
S11326D02E62696E0000000074726173682E626974
S11326E06E0000004143544956455F5357000000B3
S11326F055504C4F41445F4449534B00555342207D
S113270052657365740A0D005553422053757370F6
S1132710656E6465640A0D005553422052657375F5
S11327206D650A0D00000000456E756D657261747B
S113273065640D0A000000007C07FF1F85F80BA0EC
S113274085F80CA001216078FEF720F89DF80D00B3
S1132750A07059F820509DF80F00032804D01222CD
S1132760F649F748FDF7BDFE9DF80C0000069DF8FC
S11327700F0071D5232872D009DC1A2824D022DC5A
S113278003286BD004281ED012281CD10EE02E285A
S113279019D004DC252844D0282814D126E02F2879
S11327A011D055280FD0A8280DD11FE09DF8100096
S11327B020A9400900F089F9010002D0BDF8802069
S11327C010E0012038738CE0DC490422283920A869
S11327D0FDF787FE287EC00602D580208DF8820092
S11327E0042263E06078FDF76AFF7AE0DDF81110F7
S11327F09DF8142009BA21F0FF011143E160A828D3
S113280006D0BDF8160040BA2061FFF751FB10E76F
S1132810DDF815009DF8181000BA20F0FF000843F9
S1132820F2E728698DF884608DF88560298D401E53
S1132830090A8DF8861095F828108DF88710010E76
S11328408DF88010010C8DF88110010A8DF882102A
S11328508DF88300082229E02DE000E028E0BDF88F
S11328601600B64946BA0C22123120A8FDF739FEEB
S1132870288B10F0880F15D0800601D5022000E0C7
S113288001208DF88800287C8DF88700288A000AAA
S11328908DF886002869000C8DF885002869000EE3
S11328A08DF884000C2E00D90C26324620A999E715
S11328B01222A34996E778B11B2804D02A2816D0FF
S11328C0AA280ED113E09DF81300010909D1C0070D
S11328D007D100F0C3FA04E0287E10F0880F3FF41B
S11328E070AF0D2297496078FDF7E9FEA1E6DDF8A7
S11328F011109DF8142009BA21F0FF011143E16081
S1132900AA280AD0BDF8160040BA40028D49606179
S1132910A278583941F822008BE6DDF815009DF8BD
S1132920181000BA20F0FF000843EEE712210180DE
S113293082481E30704783497439896821B1202147
S113294001807E483030704700207047052801D947
S1132950002070477B4A183A52F820301B780B80CD
S113296052F82000704730B5CA880B6889880AB9C4
S11329704FF4C04209B944F265718275140AC475F2
S1132980017681740D0A4576C5748273C47301742B
S113299045740377190A4177190C8177190EC177A9
S11329A030BD30B5A3B00546802200216846FEF74D
S11329B086F808206C468DF80B000B2262A1204695
S11329C0FDF78FFD0020ADF886002090ADF884005F
S11329D020A92046FFF7C7FFA96820344FF00B0257
S11329E001B95CA12046FDF77CFD18208DF82C0070
S11329F020208DF82B0003208DF83A00294620462C
S1132A00FFF7B1FF802269464FF47E2001F05DFD9F
S1132A1018B14FF0FF3023B030BD002211461046EC
S1132A2001F053FD0020F6E710B501291CDA00EB94
S1132A308003434801EB8101143000EB830303EB73
S1132A408100047C84B10124147353F821101160B3
S1132A5081899180C189D18081689160417C09B16B
S1132A6003211173406810BD0020107310BD70B5B0
S1132A70154602460498012918DA02EB8204304A0A
S1132A8001EB8106143202EB840202EB8604217C02
S1132A9061B1646852F82620E41A141B844200DDF4
S1132AA00446012904D003290DD107E0002070BD9C
S1132AB022462946184601F00FFD04E02246194635
S1132AC02846FDF70EFD204670BD022801D30020E4
S1132AD0704709B1242008801848243870470178C9
S1132AE0427841EA02218278C07841EA024141EA0F
S1132AF00060704701EB4102D308114A3C3202EBFB
S1132B00402252F8230001F0070301EB4101C908F8
S1132B1002EB8101082B07D2DFE803F00407092246
S1132B2024262B2DC0F30B007047000BFAE709791C
S1132B30000E01F00F0140EA01207047F552000039
S1132B404003FF1F9002FF1F55504C4F41445F4408
S1132B50534B3100534F46545741524542494E005E
S1132B600009DFE7000CDDE70979000F40EA0110F6
S1132B70E3E7000AD6E7000DDFE770B586B0002072
S1132B800124ADF806008DF80E00ADF804008DF8B0
S1132B901040022514498DF81150752000918DF8CC
S1132BA01200ADF80A406A4600210520FDF70DFD2C
S1132BB00E4E6A46002130704020ADF80C000C48DF
S1132BC000906002ADF804004000ADF80600400833
S1132BD08DF80F40ADF808008DF80E500520FDF774
S1132BE0F4FC707006B070BDB92200001C02FF1F17
S1132BF0C72100002DE9F0470646002400789CB068
S1132C00DFF88894884625462746EA46532801D0AB
S1132C10732879D1F6E02046641C072869D006DCC5
S1132C2013D2DFE800F0244F4F5966666600C828C7
S1132C3075D006DC08285CD009285AD00A2804D1AB
S1132C4057E0C9286BD0CA2878D0E807307874D008
S1132C5000F08DFB05EBD57201460AEB620202F12E
S1132C600A00927A11430170C819C7B2C5E03078DE
S1132C708DF80800302875D0352873D0372809D04E
S1132C80382807D0392805D0002000908DF8090095
S1132C900190B7E000221146104601F016FC08220C
S1132CA0FB49100401F011FC002877D1F9A1F74881
S1132CB0C9F80810FFF775FE00286FD107201CB073
S1132CC0BDE8F087307800F052FBC4F103018900BD
S1132CD0884001990843DBE70198C7B2400001909E
S1132CE09DF80800312811D03228019813D00A38F1
S1132CF00190307800F03BFBC4F10B01890088405F
S1132D000099084300907DE080E008E00198801F6E
S1132D10241D0190EDE70838A41C0190E9E7307800
S1132D2000F025FBC4F1CA01890088409DF8091010
S1132D3008438DF8090065E000E056E0009800992A
S1132D4007EB106000EB114000EB11200844C0B207
S1132D509DF8091080F0FF000DF10A06814202D0AF
S1132D600420ACE71BE005EBD5704410002C4DDDCE
S1132D70009808280BD2C648009A16F8011B815403
S1132D800099491C0091641E09D00829F4D30098C5
S1132D902044B0F51E2F04D3052090E71FE0002047
S1132DA08DE7D9F80020904201D9C9F80000B84D48
S1132DB0103DE86858B10099814208D0C010B0EBCA
S1132DC0E10F04D000221146104601F07EFB00986A
S1132DD02246314600F5002001F077FB08B10120BE
S1132DE06DE700982044E860D9E700F0C0FA05EBED
S1132DF0D5720AEB62010001887201986D1C85424C
S1132E0000DBC824761C4645FFF405AF022056E7D4
S1132E1010B5A3A0FDF714FDA8A0FDF711FDA9A00E
S1132E20FDF70EFDB0A0FDF70BFD0C214FF40020C3
S1132E30FDF701FEAFA0FDF703FDAFA0FDF700FD18
S1132E40B2A0FDF7FDFCB6A0FDF7FAFCB9A0FDF7B2
S1132E50F7FCBDE81040BCA0FDF7F2BC70B5054618
S1132E6001F03FFB0446BDA0FDF7EAFCA41C062CC0
S1132E7020D2DFE804F01A1816140503B9A015E0EF
S1132E80BCA0FDF7DDFC002D16D1BBA0FDF7D8FCDE
S1132E90BDE87040012214216120FEF7A0B9BBA057
S1132EA004E0BCA002E0BDA000E0BFA0BDE870400B
S1132EB0FDF7C6BCC0A0F9E770BD10B500242168B9
S1132EC0491C3AD06168491C37D04FF40021096885
S1132ED0491C32D060B300F016FC4FF0E02141F8F9
S1132EE0104FB648426BB64B1A404263826A22F4D2
S1132EF040628262C26A22F00102C262026B22F460
S1132F0000320263AF48426842F080724260026855
S1132F1022F000420260D814C1F87001C1F87401B3
S1132F20C1F87801C1F87002C1F87402C1F87802DE
S1132F30BDE81040002001F00BBC10BD2DE9FE4F90
S1132F40534C90F80E80103C504D01260027A06889
S1132F504FF020094FF4002B0C3538BB8DF8067068
S1132F6009208DF807007002ADF80090ADF802005A
S1132F70ADF8040061208DF808006A4603210020A2
S1132F80FDF723FB207018B100220521FDF73DFB5E
S1132F908D49207808700120FFF760FFFFF738FFA4
S1132FA00822FF213A48FDF78AFDA660B246374958
S1132FB005220C314046FDF7BDFB00285ED0E878C1
S1132FC00028F4D12879012805D00120FFF775FFE6
S1132FD0C4F808A0EBE701F036FBE8E76068295C79
S1132FE00A29EBD0A268102A49D006DC012A0CD0A9
S1132FF0022A09D0042A17D170E1202AF9D0402AE4
S1133000F7D0B2F5804FF6D134E10D290DD03F2928
S113301036D0291801222078FDF751FB6068295C1D
S1133020401C606008292CD092E16760022824D1FA
S11330302878642806D0442804D06C280CD04C2866
S11330400AD00EE06978632901D0432909D15FA031
S1133050FDF7F6FB02207AE16978642912D044294D
S113306010D073280FD053280DD06D280CD04D28C4
S11330700AD0622809D0422807D0D5E06BE15EE18E
S1133080EDE0F0E0B0E0B4E0BEE0C8E07C09FF1F92
S1133090B002FF1F534F4654574152455331390034
S11330A00D0A0A20755461736B6572205365726949
S11330B0616C204C6F6164657220000056312E33C0
S11330C0000000000D0A3D3D3D3D3D3D3D3D3D3D83
S11330D03D3D3D3D3D3D3D3D3D3D3D3D3D3D3D3D1C
S11330E03D3D0D0A000000005B5377617020736959
S11330F07A6520005D0D0A006D65203D206D6173C9
S1133100732065726173650D0A0000006263203DDF
S113311020626C616E6B20636865636B0D0A00004E
S11331206463203D2064656C65746520636F646529
S11331300D0A00006C64203D207374617274206C6D
S11331406F61640D0A0000007377203D207377617E
S113315070206D656D6F72790D0A00000D0A53774A
S113316061702000756E696E697469616C6973655C
S1133170640000004F4B0000202D207265736574BD
S113318074696E672E2E2E0D0A0000007573696E29
S1133190672031007573696E67203000636D6420A9
S11331A06572726F722100006572617365206572C9
S11331B0726F7221000000003F3F00000080044055
S11331C0FFC3FBFF00700440F001FF1F0D0A4465BC
S11331D06C65746520636F6465205B792F6E5D2078
S11331E03F203E200000000066A0FDF729FB0420DC
S11331F0ADE06878772801D0572815D169A0FDF78C
S11332001FFB4FF48040A2E06878652801D0452870
S11332100AD16BA0FDF714FBC4F8089098E0687815
S1133220632803D0432801D06BA013E05E464FF41B
S11332301E286BA0FDF704FB3078FF2802D1761C12
S11332404645F9D3464508D23EB12C213046FDF718
S1133250F2FB68A0FDF7F4FA7AE06AA0FAE7676087
S1133260FFF7D6FD74E0022801DA676073E0801E80
S113327060606DE02878792803D0592801D064A0D3
S113328027E0202A16D0402A19D0B2F5804F19D051
S113329063A0FDF7D5FA00214FF47E2001F0FDF87C
S11332A04FF4F031584601F0F8F8B0F1FF3F0FD079
S11332B088B90BE05FA0FDF7C3FA402047E001F0B6
S11332C0E8F845E00020FFF7C9FD41E066A000E012
S11332D069A0FDF7B5FAC4F808A039E0032904D0C1
S11332E0401C60600D2907D032E067A0FDF7A8FA02
S11332F06760FFF78DFDEEE729186648FFF77AFC53
S113330008281AD2DFE800F0190C04190614190E63
S113331061A000E069A0FDF793FA1020A060A4E783
S11333206EA0F8E778A0FDF78BFAC4F808A09CE734
S11333307EA000BFFDF784FA97E77DA0FAE7122983
S113334006D1012204216120FDF749FF0820A06075
S11333506068FF2889DC6068012229182078FDF75D
S1133360E9F900287FF43AAEBDE8FE8F70473038A3
S1133370C0B2092805D9C01FC0B20F2801D920380E
S1133380C0B270470D0A506C656173652073746137
S1133390727420532D52454320646F776E6C6F61B5
S11333A0643A20000D0A53776170206D656D6F7269
S11333B079205B792F6E5D203F203E2000000000C5
S11333C00D0A4D617373206572617365205B792FFB
S11333D06E5D203F203E2000203F3F0D0A3E20002E
S11333E00D0A436865636B696E6720466C61736898
S11333F02E2E2E00204E4F5420424C414E4B210D78
S11334000A3E200020454D505459210D0A3E20000B
S11334100D0A41626F7274656421210D0A3E200019
S11334200D0A0A44656C6574696E6720636F646590
S11334302E2E2E000D0A21212044657374726F799B
S113344020464C41534820616E64204C6F61646592
S113345072202D20636F6E6669726D205B792F6E0A
S11334605D203F203E2000007375636365737366BF
S1133470756C0D0A3E2000006661696C656421214B
S11334800D0A3E20000000002041626F72746564E2
S1133490210D0A008809FF1F0D0A0A535245432DC6
S11334A06572726F72212120284374726C2B722012
S11334B0746F207265736574290000000D0A0A4355
S11334C0532D6572726F72212120284374726C2B04
S11334D07220746F20726573657429000D0A0A5096
S11334E0726F6772616D6D696E672D6572726F724E
S11334F0212120284374726C2B7220746F20726512
S113350073657429000000000D0A0A5465726D6920
S11335106E61746564202D20737761702069662064
S113352072657175697265640D0A000021000000FE
S11335302E000000FE49002008604FF0E0206FF0EC
S11335407F4141618161016905210161FFF70EFF3E
S1133550F949F848FA4A4861F848416883681030E4
S113356019449042FAD1F748FDF7B6FCF5490C220C
S1133570083901F11000FDF711FD00BFFDF7C1FD91
S1133580FCE7704730B5F04C012304EB0030002A0F
S113359003DAEE4C224003240BE040F2777408E097
S11335A0194204D00568A5431543056099435B009F
S11335B0001D0029F4D130BD70B5E54C0026A06B88
S11335C040F40060A063E34DD5F8940020F040007F
S11335D0C5F89400E149E048C1F88000A06B40F4CC
S11335E00070A063686920F010006861D649DC4867
S11335F0C1F8800028694CF22052C306D9484DF620
S11336002811C281C18107D54FF4C871C18000213E
S1133610818040F2D11101E04FF4E9710180A06B87
S113362040F40050A0634FF4A2724FF08061042074
S1133630FFF7A8FFD5F8000140F08060C5F800014D
S1133640D5F8140140F08060C5F81401C648022181
S113365001734FF488116164842101704FF47A720C
S11336600321C24B08E0761C964205DB656B45F4EA
S11336708025656383F844118579C5F38105022D9E
S1133680F1D1417841F002014170BA49B84808606B
S1133690B949C160016141618161016381608163F4
S11336A0C162B4488030016841F47001016070BDAA
S11336B010B5FFF781FFBDE81040FCF7A5BC10B5BD
S11336C09D4C61690988018011B941F27B21018017
S11336D0FDF70CFD6169088010BD10B500B901202B
S11336E04FF0E0210A698B69303B04E00C69E40384
S11336F001D50B6902E08A699A42F7D8A2F1300336
S1133700401EF8D110BD72B68B480168491C016097
S1133710704789480168491E016000D162B670474C
S113372030B5944B964D954C1B684033090143F8D2
S113373020202954C11700EBD1614A1121F01F0147
S1133740411A0120884044F8220030BD894910B54F
S1133750091F4FF000700860FFF7D5FFFDF7C0FDAB
S1133760BDE81040D5E782488649C1634FF0E020A8
S11337708549416181617F4918310A6842F070428C
S11337800A60072101617047764A00B51088C007B6
S113379009D0FFF7B8FF4AF2026090814BF28040F3
S11337A09081FFF7B6FF6B494FF08060C1F80C01C0
S11337B000BD2DE9F047DFF88081814600EB490721
S11337C0D8F80800089D00EB87008860007A1E4640
S11337D094460C46400604D405F110006060001DB8
S11337E003E005F118006060001DE060FFF78BFF47
S11337F023464A4660467168FEF7D0F8012819D07E
S1133800032802D004282DD119E0A068616840681B
S113381040F080000860A068416881F04001416088
S1133820A068816881F040018160306840F08000C8
S1133830306027E0FFF76DFF0120BDE8F0875FEA05
S113384009004FF0840A21D0FEF7F7FAD8F80410E3
S113385001EB40120821C2F810A0C2F818A000BF62
S1133860FEF7E0FAD8F80810484B01EB870220680D
S113387092681A401043206040F080003060206855
S113388041F82700FFF745FF0020D6E7C5F810A050
S113389008214846C5F818A0E2E710B5264C334A7B
S11338A020F08003C032616802EB830201EB431114
S11338B0000610D503EB4300A36803EB80004368C4
S11338C023F040034360002008618861107820F0F1
S11338D00200107010BD086820F0040008608868B9
S11338E020F00400886010BD70B5204C332004F82B
S11338F0800F14F8140F40F00200207014F8100C1C
S113390020F0300004F8100C0B4881688A6822F01B
S113391040028A6080220A60217821F0020104F8C2
S1133920041B002504F8285B012104F803192FE087
S113393000800040FCFF0220BC02FF1F7C0000004E
S11339409C00000088530000009004408BF8FF7F27
S11339500080044000F00F400301400000B0044028
S113396003011000002005400040064000200740ED
S11339700000FF1F08ED00E08335000000E100E0D7
S113398000E400E04D370000FF9E24000800FF0320
S1133990E571E572E572E574E575E576E57784F839
S11339A0235084F8275084F82B5084F82F50E57264
S11339B084F8375084F83B5084F83F50B4F1BD0488
S11339C094F8C0104907FBD44068FA49002281608A
S11339D0F849F94B4031016011460420FDF7DEFF40
S11339E0F54885740D2084F8C00070BD10B5B0F1A1
S11339F0FF3F09D0F049143110B101280AD101E088
S1133A00086810BD486810BDEB480C220021143032
S1133A10FDF755F8002010BD2DE9FE4FDFF898930F
S1133A204FF0300809F114094FF0000AE24EDFF8B4
S1133A308CB3E34DE34CACE037F008004FD0FFF714
S1133A4062FEF80702D00020FFF74EFFB80720D52A
S1133A5094F88800C00604D5D9F80810491CC9F8A0
S1133A60081094F88800400704D5D9F80410491CBC
S1133A70C9F8041094F88800800704D5D9F8001018
S1133A80491CC9F80010162084F88800022084F824
S1133A908000F8060DD584F8808094F8840040F006
S1133AA0200084F8840000231A4619460520FDF7F7
S1133AB075FFB8060DD584F8808094F8840020F052
S1133AC0200084F8840000231A4619460620FDF7D6
S1133AD065FFFFF71EFE27F0080084F88000380712
S1133AE057D594F890006968070994F8902001EB81
S1133AF04710120724D594F8941009070DD4AA6826
S1133B0007EB470102EB8101B160097A490604D44D
S1133B1000F110011430716003E000F118011C3051
S1133B207160F060FFF7EFFDA34B3A4600210320DC
S1133B30FDF734FFFFF7EDFDB07C84F8980025E035
S1133B4094F89020520708D594F8942000F10803C3
S1133B50120709D44022326006E094F89420034608
S1133B60120701D4C6F800A01A68C2F309423282CF
S1133B701A7802F03C02042A14D0342A41D0842159
S1133B800161816108213846FEF74CF9082084F868
S1133B90800094F8807094F8840007407FF44CAF60
S1133BA0BDE8FE8F07EB47010191AA6802EB810192
S1133BB0097A090705D5019912F8211001F080014D
S1133BC000E08021029104EB870191F8C01000907D
S1133BD0C90601D5012200E0022277493846FFF7E1
S1133BE0E8FD029801990028A86850F8211002D035
S1133BF021F0800201E041F08002019940F8212087
S1133C00C4E7C0F810A0C0F818A03278D5F808C0EE
S1133C10520607EB47020CEB8202926802EA0B029F
S1133C2004D40A6042F0C0028A6003E08A6042F071
S1133C30C0020A6007EB47010191D5F808C0482289
S1133C400CEB81014A60009000225B493846FFF783
S1133C50B0FD012808D00199A86850F8211041F05E
S1133C608002019940F8212094F8940020F020006B
S1133C7084F894008AE7534A0B4610B502EB80019E
S1133C8091F8C010490701D4012010BD4C4C616863
S1133C9001EB4012A16800EB400001EB80041868BE
S1133CA08460FFF730FD207A400603D402F110004F
S1133CB0143202E002F118001C320178090603D51F
S1133CC0FFF727FD022010BD196848601868C2601C
S1133CD0FFF71FFD002010BD2DE9F05F9046384A24
S1133CE0384C0646C034506804EB810700EB41149D
S1133CF038784FF0480A20F00C0038704507FDD49E
S1133D000020A0612061A0602060956801EB41095A
S1133D10934605EB89022B49906045F82900FF2E54
S1133D2010D011F8845F45F010050D7026F0800165
S1133D3001290FD008200525506030062FD4606873
S1133D4068B117E011F8842F22F030020A7038703D
S1133D50BDE8F09F24254FF0000A5060EDE743458D
S1133D6000D998464046FDF7CAF860604046FDF722
S1133D70C6F8E0606FF07C4101EA084040EA0A00BE
S1133D8040F0800120F04000A16040F080012160FB
S1133D90DBF8082045F0080502EB8901886036F05D
S1133DA0800005D045F01005300601D425F0040547
S1133DB03D70CDE788000800880AFF1F0800FF0354
S1133DC0BC02FF1F002007402DE9F041F84D00EB35
S1133DD04006696801EB4014A96811F826104906E9
S1133DE001D5002701E04027083421680A0602D5DE
S1133DF00120BDE8F081C1F3094201236168FDF7A8
S1133E005DFD012812D0A968EA4A01EB86008068AA
S1133E101040384340F08002226011F8262002F05E
S1133E208002024341F826200020E2E70220E0E776
S1133E302DE9F05FDFF880930C46002699F80070B6
S1133E4099F801B099F808A0487C401CC5B2DB4839
S1133E50016841F480710160D948416841F0807182
S1133E6041600168426821F0804142F00072426082
S1133E7041F000410160227CD2480021012A7CD01B
S1133E80826B42F400528263CF4B4FF4E0629A6635
S1133E90CE4A00211160416B490300D50126416BD4
S1133EA041F480214163102D00D9102505EB450014
S1133EB08000FDF724F8BE498860CEB199F8081057
S1133EC0484621F00E0189F8081099F8011041F0D4
S1133ED0010189F8011099F8001021F0800141F0E6
S1133EE0420189F800108179C1F381010129FAD1D5
S1133EF0DFF8DC8298F80C0140F0800088F80C01AF
S1133F0098F80C010006FBD4A07A4FF00201400798
S1133F1019D488F84411802088F840019EB199F89A
S1133F200020484622F0400307F00802134389F8B2
S1133F300030837903F00C039342FAD180F801B086
S1133F4080F808A0077088F8941068014FF4007195
S1133F50FCF7F1FF964E010A706088F89C10010C82
S1133F60000E88F8B01088F8B400002788F898701C
S1133F7088F8947088F8C07000E008E098F8C000F1
S1133F804007F9D4A07A400707D5402506E04268E7
S1133F9042F4E022426081647AE708252846FCF76F
S1133FA0AEFF716848602846FCF7A9FF01467068B7
S1133FB0C160882141EA0541816041F0400101600E
S1133FC0082040EA0541B0688160802101600D202D
S1133FD088F8C000ED2088F81000FF2088F88000E1
S1133FE0BF2088F888007B4A04213520FFF798FB1E
S1133FF0A07A400713D488F800718B2088F88400D5
S1134000062088F88C00012088F89400A07AC00764
S113401005D0402088F80C01102088F8080197E6A4
S113402010B56D4C2079E178014089060BD5E07913
S11340305F491831097808400021FCF7EDFE20792A
S1134040010700D5E179E1780140880904D0BDE891
S113405010400020FCF736BF10BD10B55F4C20792E
S1134060E178014089060BD5E07951491831497846
S113407008400121FCF7D0FE2079010700D5E17941
S1134080E1780140880904D0BDE810400120FCF724
S113409019BF10BD10B5524C2079E1780140890652
S11340A00BD5E07942491831897808400221FCF7A0
S11340B0B3FE2079010700D5E179E1780140880950
S11340C004D0BDE810400220FCF7FCBE10BD10B5C2
S11340D0444C2079E178014089060BD5E0793449D4
S11340E01831C97808400321FCF796FE20790107AE
S11340F000D5E179E1780140880904D0BDE8104099
S11341000320FCF7DFBE10BD10B5374C2079E178F1
S1134110014089060BD5E079254918310979084011
S11341200421FCF779FE2079010700D5E179E178D3
S11341300140880904D0BDE810400420FCF7C2BE49
S113414010BD10B5294C2079E178014089060BD5C2
S1134150E07917491831497908400521FCF75CFEDC
S11341602079010700D5E179E1780140880904D07C
S1134170BDE810400520FCF7A5BE10BD0C4A343242
S113418052F820000279120601D401207047C1714F
S1134190C17841F08001C170002070470449343176
S11341A051F82000C17821F08001C17070470000EF
S11341B0BC02FF1F0800FF030040064000F001405E
S11341C0007004400080044000D0044000D000404F
S11341D000200740193A000000A0064000B0064045
S11341E000C0064000D0064000A00E4000B00E40C3
S11341F030B5F849F94B4FF4407251F82040F64974
S1134200062818D2DFE800F0030D1C263039886B2D
S113421040F480608863F24842640621F14A1F201A
S113422007E0886B40F4005088631A60EE4A062168
S11342302120FFF775FAE07840F00800E07030BD07
S1134240886B40F480508863E848C2600621E84ADD
S11342502320EEE7886B40F400608863E5484264FD
S11342600621E54A2520E4E7886B40F40050886382
S11342701A660621E14A4220DBE7886B40F40050CD
S113428088631A620621DE4A4420D2E7D14951F8F4
S11342902000C17821F0C801C17087E730B5CD494D
S11342A0CE4B4FF4407251F82040CB49062818D227
S11342B0DFE800F0030D1C263039886B40F4806081
S11342C08863C74802640621C64A1F2007E0886B3A
S11342D040F4005088635A60C34A06212120FFF746
S11342E01FFAE07840F02400E07030BD886B40F4A1
S11342F080508863BD4882600621BD4A2320EEE7D2
S1134300886B40F400608863BA4802640621BA4AA4
S11343102520E4E7886B40F4005088635A66062140
S1134320B64A4220DBE7886B40F4005088635A6247
S11343300621B34A4420D2E7A64951F82000C178A7
S113434021F02401C17031E730B4A24A0024A24B09
S113435052F8202006284FD2DFE800F003070C10A3
S113436014185D6B45F4806502E05D6B45F40065EF
S11343705D630FE05D6B45F48055F9E75D6B45F4D3
S11343800055F5E79D6A45F4806502E09D6A45F4B1
S113439000659D62CB790C2B1DD2DFE803F0060982
S11343A00C0F1215191C1F22252842F210731FE04E
S11343B041F288331CE040F6C41319E040F2E243B2
S11343C016E040F2712313E010244FF49C730FE0C5
S11343D00A24D0230CE008249C2309E004244E235F
S11343E006E00224342303E001241A2300E00D2311
S11343F0947230BC00F02BB930BC70472DE9F04109
S11344001546744A0646343AD06878B902F128034E
S11344107C4C002023F0010333F8027B24F8107055
S1134420401C1E28F8DB7748401CD060764C20786E
S11344300006FCD5207810F0700F01D07020207099
S1134440E671072E05D0092E03D0442E12D0462E35
S113445010D1080CA071080A60712171072E02D0D6
S1134460462E05D006E001CDA0602868E06001E09A
S11344702868A060FFF747F9D16820468847FFF70E
S113448048F9462E01D1A0682860207800F0310058
S1134490AFE4002211464420B0E770B5040B2403B6
S11344A0001B45184FF48056002221460920FFF7CF
S11344B0A5FF08B1012070BDB54204D904F58054AC
S11344C0A5F58055F0E7002070BD0EB5CDE90002DA
S11344D0684600F0E2F80EBD0B4601461846FCF7AC
S11344E000B82DE9F84FDFF824A1494FDFF818810F
S11344F081466FF0010B6FF077466A463C463946B9
S113450046200096FFF77AFF00285FD10098C0F399
S113451007400528F1D2DFE800F003303E50930055
S11345202746B9F1000F21D00320BDE8F88F206899
S1134530401C08D037A0FCF783F90022214609204B
S1134540FFF75CFF80BB022D0ED0241D28466D1C96
S11345500428ECD36FF07E4000906A46394646202A
S1134560FFF74CFF90BB03E05446EFE70125DEE77D
S113457098F80A000028FDD0BFE76FF07D40009056
S11345806A4621464620FFF739FFF8B998F80A0031
S11345900128FDD0B1E7B9F1000F06D0009810F45E
S11345A07F40C2D00120C0E705E000225146092027
S11345B0FFF724FF08B15846B7E76FF07B4000903F
S11345C06A4639464620FFF719FF10B14FF0FF3015
S11345D0ABE731E0F002FF1F0080044000D004404C
S11345E000A00440214000005B40000000C00440E3
S11345F09540000000B00440CF4000000941000095
S113460043410000A80AFF1F00000240E0FF0F0022
S1134610E0FF0700436C65616E696E672073776124
S11346207020696E64696361746F7220736563746A
S11346306F720D0A0000000098F80A000428FDD1EA
S1134640022072E7B2E53D493B480860FEE730B519
S1134650C3F30424147053700B78394CDD074FF006
S113466000030ED07F252554088810F0060F06D0CD
S1134670400701D5032000E00220907030BD937004
S113468030BDFF252554088810F0060FF7D04007E9
S113469001D51320F1E71220EFE72DE9F05F0F00B9
S11346A027494568A1F118012AD0006820F00702C3
S11346B000F007060A61DFF888A08B460AF1080AB1
S11346C00AF10809C6F10804AC4200D92C460AEBE9
S11346D00600804622463946FBF703FF2D1B08EBF4
S11346E00400274448451ED3154A002608325C4678
S11346F00720DBF81010FFF781FE50B101208EE493
S1134700086910F0070F15D020F00700082608618B
S1134710D1E720690822083020610948FF210830C8
S1134720FCF7CDF904E0DBF810102144CBF81010AD
S1134730002DC7D1002072E40400FA050CED00E05E
S1134740D402FF1F0148014A704700003816FF1FBA
S1134750D0F800D0D0F804F080F31188704700003E
S11347602DE9F047074600EB470000EBC701FC4882
S1134770022600EBC105288B6C69400500D5012693
S11347804FF4FE7200212046FCF799F9EB202070CB
S1134790582060709020A070F2A1E01CFCF7C1F9D1
S11347A04FF4007028850020E072022323733F2019
S11347B02076FF21A176F821617520772869267477
S11347C020213F38A17384F82000020A84F82120B4
S11347D0020C84F82220020E84F823204FF0010CEE
S11347E0B0F5022F02D885F82BC00FE0B0F1807F1E
S11347F001D8082108E0B0F1007F01D8102103E0BE
S1134800B0F1806F00D9402185F82B1095F82B105A
S1134810213806EB01214A081044B0FBF2F0DFF81E
S113482050A39846E1464AF8270084F824003AF851
S113483027000822000A84F825005AF82700CDA191
S1134840000C84F826005AF82700000E84F827008C
S113485084F82C3084F830C0062084F832005AF8EA
S1134860270070435F30A86004F1400604F1520051
S1134870FBF737FE95F82B00AA68414202EB410191
S1134880E9606073802030702920B070288B400567
S113489018D55AF82700A9680B22091AC5E9070197
S11348A0B7A1F01DFBF71DFE86F8039086F804807F
S11348B0032070710420B071552084F8FE01AA20F1
S11348C084F8FF01BDE8F08780F8E8110B0A80F84E
S11348D0E9310B0C80F8EA31090E80F8EB1180F80D
S11348E0EC21110A80F8ED11110C80F8EE11110E73
S11348F080F8EF1170472DE9F0470E460024054675
S11349004FF001092746A0460B2220213046FCF730
S1134910D6F81820F0722868411C296090F900002C
S11349202E2815D005DCF0B10A2818D00D2804D1A2
S113493015E02F2817D05C2815D0C1B2202918D82B
S1134940002CE8D02028E6D14FF004095F2046E08F
S1134950C4B3082C45DC4FF001080824DBE724B974
S11349604FF0FF30AEE7002CD5D0481E28604846F3
S1134970A8E77E292AD88549014411F8211C11F0A1
S1134980210F04D0002FC6D08906C4D527E037BB39
S11349904A070AD5F17AB8F1010F02D021F00801D3
S11349A001E021F01001F17219E0090717D5203850
S11349B0F17A4FF0030940B2B8F1010F03D041F08E
S11349C00801F0E724E041F01001ECE7A1F18102D5
S11349D01E2A02D9E0391C299DD80127ACB1082C24
S11349E016DBB8F1000F01D00B2C11DB2868411C39
S11349F0296090F900000D2803D011DC08B10A28C1
S1134A00F4D1481E286004205CE710F11B0F03D08A
S1134A1000273055641C7EE70520307001247AE7B6
S1134A202F2801D05C28E1D1481E2860022049E7E4
S1134A302DE9F74F86B005468068039068680490B6
S1134A402968002408460091FCF774F80190DDE918
S1134A50001001EB000B4FF0FF0A05F11E064FF0AA
S1134A600108D1460C2200213046FCF728F820200A
S1134A7030702F2086F80800FCF738FB0746FCF757
S1134A8035FB47EA004010F01F300590F4D00422B3
S1134A9005A9B01CFBF725FDFCF728FB41F61F71A7
S1134AA008400590022205A9B01DFBF71AFD00205D
S1134AB00B21C20102EB500016F8012B491E1044D1
S1134AC0C0B2F6D1019E0590761C04E008F1010005
S1134AD000F0FF080D3E0D2EF8DC079808B9049885
S1134AE0029048F040074FF0FF300D2E03DB9BF897
S1134AF000A04FF000090146401E491C212960D244
S1134B00DFE801F0461157606366696C6F7275786F
S1134B10A9A9A97B7F8285888B8E9194979A9DA958
S1134B20A9A0A4A7AE00079898B90398008D4109DD
S1134B300298203002906869401C6861884208DB52
S1134B40002068612869002807D00298A0EB411072
S1134B50029000998B451BD2002009B0BDE8F08F6C
S1134B601C13FF1F4D53444F53352E3000000000DB
S1134B700803FF1F46415433322020200000000068
S1134B80444154415F4449534B202000D05300001A
S1134B90029C202200212046FBF791FF27F04000D1
S1134BA02770401EC7B20F20E072059860731F2063
S1134BB09BE784F801A00399098B41F00102039952
S1134BC00A8348E084F802908FE784F803A042E067
S1134BD084F8049089E784F805A03CE084F8069002
S1134BE083E784F807A036E084F808907DE784F82A
S1134BF009A030E084F80A9077E784F80EA0C01E7C
S1134C0029E084F80F9070E784F810A023E084F87A
S1134C1011906AE784F812A01DE084F8139064E709
S1134C2084F814A017E084F815905EE784F816A0C1
S1134C3011E084F8179058E784F818A00BE084F882
S1134C40199052E784F81CA0801E04E084F81D909B
S1134C504BE784F81EA00D2E05DBABF1010B44E7F6
S1134C6084F81F9041E7761C3FE72DE9F05F0023AD
S1134C70824690F848E0006A0424121A1D461F4632
S1134C804FF0010C1E46084601D09C4616E0F94937
S1134C90032502C04FF0FF3102C020C06D1CA542A5
S1134CA0FBD36FF0704102C069E0BD4202D8BCF191
S1134CB0000F46D04FF0000C012B56DAEE49CEEB34
S1134CC0CE0701EB870100BFC3EBC30751F8278070
S1134CD0B8F1000F46DD01EB8708D8F804705FEAED
S1134CE007093FD0D8F81070974231D8D8F814701B
S1134CF097422DD3C3EBC30701EB8707B1467F6906
S1134D00974203D19946D8F8187000E08127D8F863
S1134D101080904513D2A2EB0808C6EBC60B04EB37
S1134D20C81451F82B80B8F1000F07DD9E4205D05E
S1134D3001EB8B018969641A641E00E0241F4E464E
S1134D405B1C641CAF4218D86FF0704102C015E0C0
S1134D509AF82B60BAF828707E43B9FBF6F634440F
S1134D601E46641C5B1C012BAEDBC5F18001BDE853
S1134D70F05F8A000021FBF7A2BE10C06D1C802DDD
S1134D8093D3BDE8F09F2DE9FC4116460D46044639
S1134D9090F848704FF40078424600213046FBF703
S1134DA08EFEBDB13F2D19D0402D1BD0452D15D001
S1134DB0A068A8421AD8811CA94217D9AE49281A5A
S1134DC0383101EB872101EB402142463046FBF7A5
S1134DD088FB3AE0384600F080F936E03846FFF7C1
S1134DE0BFFC32E0384600F0B0F92EE0216AA94257
S1134DF009D8E2691144A94205D92A463146204618
S1134E00FFF733FF21E000210E460191281A94F8A0
S1134E102B10801C414394F8480001AA00F0DBF9F0
S1134E2001990346002909DBCDF800804546384640
S1134E306269FDF71CFE0646A84206DA6069C6F5FB
S1134E40007230440021FBF73AFE0020BDE8FC81EB
S1134E50134600EB400202EBC000884A02EBC0009C
S1134E6001B941690A4619468DE7002070472DE9CA
S1134E70F04F0546008BA1B040057DD5002095F884
S1134E8048A00090019002900646804603907CA0C2
S1134E9004AB07C883E8070077494FF004093831A9
S1134EA001EB8A244FF0080B0BE000BFB8F1000FB0
S1134EB007D0029870B39DF80C0080071CD5029FA0
S1134EC014E084F80BB00B2270A12046FBF709FB19
S1134ED095F848003130607255E039462046203755
S1134EE020342022FBF7FDFA08F10108F87A0F2894
S1134EF0F3D00B22394625E0029807901DA90995A5
S1134F0002A8FFF7F8FC0D90002806DA1820207399
S1134F102020E0720B2204A914E0032875DB002092
S1134F20024601460C90089407A8FFF781FD288BE0
S1134F300C2220F0010028830C99884404EB4114CE
S1134F400DF13A012046FBF7CCFA182020732020FB
S1134F50E0720098B8B14FEA196060754FEA1940E1
S1134F6020754FEA1920E07684F81A9095F82B0002
S1134F70298D4843009900E079E0B1FBF0F101EBA1
S1134F80090000F10109BDF80600E8B3BDF80410FA
S1134F90A1750A0AE2752076A074030A6376E374A5
S1134FA0A173E27320746374009820770098010A57
S1134FB061770098010CA1770098010EE177302702
S1134FC0012E54DA9DF91700392838D0401C8DF889
S1134FD017006A4631465046FDF726FD9DF80C0041
S1134FE0A8B32548CAEBCA0100EB8101C6EBC60091
S1134FF0012241F8202001EB8000009AC0E9012938
S11350004FEAD911016101E014E010E095F82B108A
S11350102A8D5143009AB2FBF1F202EB0901696354
S1135020CA094261C160009A20348AB111E00B229E
S11350301DA987E74FF4C04144F25A70A8E79DF8D0
S11350401600401C8DF816008DF81770C1E707E0B4
S1135050491E01F07F0108F10108761C816103E01B
S11350603046761C0128ABDB012E7FF71FAF21B041
S113507074E50000F8FFFF0FE40AFF1F1C13FF1F75
S1135080444154415F30303042494E004441544120
S11350904449534B2020000070B5054600EB450001
S11350A0674900EBC50001EBC0044FF4007084F8BD
S11350B048502085000220614FF49660208301F15E
S11350C0B00060613F2200212846FFF7C1FE5D4821
S11350D000EB85206065204670BD00EB400101EBCC
S11350E0C001574870B500EBC1004FF40072D0E91D
S11350F00454002120463F3DFBF7E1FC022084F8E4
S1135100BF010C2084F8C0010B2084F8C2013820B0
S113511084F8C301F82084F8C401B82084F8C501D8
S11351203F2084F8C60184F8CA51280A84F8CB01C8
S1135130280C84F8CC01280E84F8CD01552084F87D
S1135140FE01AA2084F8FF0170BD02462DE9F0415A
S113515000EB420000EBC201394800EBC100022120
S1135160038B5B0500D50121374DD0E9043455F894
S11351702220412601FB123190F82B205F39B1FB2C
S1135180F2F1E6706127A77052226270227084F8EF
S1135190E77184F8E661722584F8E55184F8E451F6
S11351A0028B520502D5426B891A00E00322204685
S11351B0491EFFF789FB84F8E77184F8E66184F8F7
S11351C0E55184F8E451AA2084F8FF01552084F8BD
S11351D0FE01BDE8F0812DE9FF410024194D0E4682
S11351E0631EC0EBC001383D05EB810502E0641C81
S11351F0012C22DAC4EBC40155F82170002FF6DD2E
S113520005EB81014F68002FF1D08F68B74211D8A8
S1135210C968B1420ED314606A462146FDF704FC06
S1135220C4EBC40105EB81018968711A00EB4120CC
S113523004B0CEE7641C012CDCDB00201360F7E72C
S11352401C13FF1F1C0BFF1F0803FF1F754600F0F4
S113525029F8AE4605006946534620F00700854606
S113526018B020B5FFF76EFABDE820404FF00006F5
S11352704FF000074FF000084FF0000B21F007013A
S1135280AC46ACE8C009ACE8C009ACE8C009ACE87D
S1135290C0098D4670470446AFF300802046FBF7F3
S11352A0C6F8000000487047D415FF1F01491820B4
S11352B0ABBEFEE72600020070474FF04070E1EEFF
S11352C0100A7047000001000155534243030000D7
S11352D000008000011F000000755461736B65724B
S11352E020555342204D5344204C6F616465722015
S11352F020312E3030800000000000000A00000041
S113530000000000000000000000080001F8000395
S113531000020012011001000000082504FC030033
S11353200101020301090220000101048032090481
S113533000000208065005070501024000000705A9
S11353408202400000040309040A034D0061006E58
S113535000750010034D0079002000500072006FAA
S11353600064000A0330003000300031000A0343B7
S1135370006F006E006600080349006E00740000B0
S11353800157487561000000010000C000000000E2
S11353903454000035130000000000000200010036
S11353A03C5400003D2F00004500020000000000B6
S11353B030540000FD2300002500FFFF000004001E
S11353C000000000000000000000000000000000D9
S11353D000010000000000000001010000000210B4
S11353E01010101010101010100101010101000024
S11353F00404040404040404040404040404040469
S1135400040404040404040404042002200000002E
S11354100808080808080808080808080808080808
S11354200808080808080808080800200000000008
S11354307573620057646F6700000000617070004C
S903353592
