S02B00002E2E5C4170706C69636174696F6E735C755461736B6572426F6F745C4B696E65746973446573696747
S10B0000FC7F002085060000CE
S11304000000000000000000FFFFFFFFBE03FFFF2D
S1130410F8B5254D2B6853B9244F27F00107244C18
S1130420DE5B1E5302333C2BF9D101342C60214B8B
S11304301C782406FBD51C7814F0300F1CBF302424
S11304401C701D4B0728187001D0092824D11B4BA0
S11304500C0C1C7007284FEA112403F8014C03F814
S1130460021CA3F1020317D1D178D9715188997173
S1130470136813491B0A0B70136801F8013C114BF4
S1130480D1791970D18803F8011C53680E491B0AED
S11304900B700E4B52681A70064C2B682046984716
S11304A0207800F03100F8BD4402FF1FF001FF1F67
S11304B00402FF1F00000240070002400600024041
S11304C0090002400F0002400D0002400C000240EF
S11304D010B500239CB2A2420ED0CC5C40BA80B2CC
S11304E06040C0F30314604080EA003080B2C4B2BC
S11304F080EA44100133EDE710BD02440346934201
S113050002D003F8011BFAE7704710B500239342A9
S113051003D0CC5CC4540133F9E710BD38B50346AD
S113052023F47F6424F00F041B1B5D18092021466B
S11305300022FFF76DFF38B9B5F5805F04F58053ED
S113054003D9A5F58051EBE7012038BD2DE9F0472B
S113055016460F46234C59B923685A0702D1002086
S1130560BDE8F08723F0070323604FF0080804E098
S113057020F00703236000F00708DFF86C90C8F14F
S11305800805B54228BF354609EB080A50463946E6
S11305902A46FFF7BAFFAA4409F108039A452F44F3
S11305A0C5EB060614D307202168DFF838804A46D5
S11305B0FFF72EFF054688B9D8F8003048460833BF
S11305C0FF210822C8F80030FFF797FFA84602E091
S11305D023681D442560002ECFD1C0E70120BDE86B
S11305E0F08700BF4002FF1FFC01FF1FFFF796BF0B
S11305F0034608461946FFF788BF0000014B024A2C
S11306001A60FEE70CED00E00400FA05D0F800D013
S1130610D0F804F07047000010B5124A12490023C4
S1130620891A8B4204D01148185CD0540133F8E77E
S11306300F4B104A9342184604D10F4A0F49002326
S1130640891A08E00E490023891A8B42F5D0C45C4C
S1130650D4540133F9E78B4203D00020D054013342
S1130660F9E710BDF001FF1FFC01FF1FE0080000C7
S11306701004000010040000FC01FF1F4802FF1FCB
S1130680D808000008B51E4B4CF220521A804DF6D3
S113069028121A804FF4E97223F80E2C03F58F33D5
S11306A003F2F31320221A70A82203F8012C154B2D
S11306B01A78D006FBD41A7802F00C02082AFAD170
S11306C0114B04221A7040225A700E4B1A7891066C
S11306D0FBD51A785206FCD50C4B4FF092721A6077
S11306E00B4B28221A70074B1B7803F00C030C2BBE
S11306F0F9D1FFF791FF00F0CBF8002008BD00BF4F
S11307000E20054006400640044006404480044054
S1130710004006402DE9F0410468ADF5806D804647
S113072000264FF480654FF480578CB1B4F5806F88
S113073038BFA5B2384669462A46FFF759FF304606
S113074069462A46FFF7C4FE2F440646641BECE7BD
S1130750304606490622FFF7BBFEB8F806301B1ADE
S1130760584258410DF5806DBDE8F081D80800006D
S1130770F0B5114EADF2044D04464FF480654FF4CC
S113078080578CB1B4F5806F38BFA5B23046694646
S11307902A46FFF72DFF384669462A46FFF7D6FE5C
S11307A02E442F44641BECE7204621462246FFF7E3
S11307B0CDFE0DF2044DF0BD0D00060013B504226C
S11307C001A90446FFF714FF019B53B15A1C0BD037
S11307D0C4F5FF2000F2FB70984238BF01900198E5
S11307E003E04FF4805000E0002002B010BD000090
S11307F02DE9F0410446ADF5806D4FF4C020FFF7BC
S1130800DDFF0822064621461E48FFF7F1FEE38875
S113081025685BBAE380A3885BBA9AB2A38041F2ED
S113082034232DBA9A42256027D1A6F108039D42AC
S113083023D1093EB6F5003F1FD2134F4FF4806613
S11308404FF00008B5F5806F38BFAEB23846694640
S11308503246FFF7CDFE404669463246FFF738FE82
S1130860AD1B80463744EDD108490622FFF730FE20
S1130870E3881B1A5842584100E000200DF5806DB2
S1130880BDE8F081050006000D000600D808000050
S113089007B56846FFF7ACFFB8B14FF400314FF429
S11308A08050FFF7A3FE0098FFF762FF6846FFF74A
S11308B031FF40B14FF4C020FFF780FF411D4FF4DA
S11308C0C020FFF793FEFFF799FE4FF48050FFF727
S10B08D09DFE03B05DF804FB7A
S10908D8A748B6531124E9
S10F08E08021017001780906FCD57047E6
S9030410E8
