S0130000755461736B6572426F6F742E737265639E
S1130000FC7F0020DB07000000F002F800F004FA97
S11300100CA030C8083824182D18A246671EAB4619
S113002054465D46AC4201D100F0F6F97E460F3EDF
S11300300FCCB6460126334200D0FB1AA246AB468B
S1130040334318474000000060000000103A02D318
S113005078C878C1FAD8520701D330C830C101D565
S113006004680C607047000000230024002500266B
S1130070103A01D378C1FBD8520700D330C100D560
S11300800B607047A4000000C0F0FF1F1C000000BC
S11300904C000000C0000000DCF0FF1F9C000000CA
S11300A068000000000000000000000000000000E4
S11300B0000000008021017001780906FCD570471A
S11304000000000000000000FFFFFFFFBE03FFFF2D
S11304101FB51FBD10B510BD00F040FA1146FFF71F
S1130420F7FF00F0DAF900F058FA03B4FFF7F2FF2F
S113043003BC00F05DFA000038B5044604226946A6
S113044000F0C3F90099002907D0481C04D066487D
S1130450001B884204D3084638BD0120000338BD80
S1130460009038BDF1B5FFB0FFB0032082B05F4CFF
S11304704004FFF7E1FF0546FFA841685B480822F6
S1130480083800F0A2F9FFA84068C1880A0A0902E6
S11304901143C18081880A0A0902114381800168DD
S11304A00B021B0E0A0E1B0213430A04120E120443
S11304B01A430E0616430660FFA840684C4980881C
S11304C088422BD1083DAE4228D1002E26D00120EF
S11304D04004864222D8C5110027012080028642AA
S11304E000D2B5B22A466946204600F06EF92A4683
S11304F06946384600F08AF864190746761BECD141
S113050006223C4900F082F8FFA94968C988814263
S113051004D101207FB07FB003B0F0BD0020F9E723
S1130520F0B5FFB0FFB085B06846FFF79BFF002829
S113053050D0012149044E11304600F045F9B41061
S11305402A4F009D11E001208002854200D2ACB206
S1130550224602A9384600F038F9224602A930465C
S113056000F0EAF83F1936192D1B002DEBD10022BB
S11305701146104600F0E0F80124A4020027A6006A
S1130580009D11E001208002854200D2ACB22246D7
S113059002A9304600F019F9224602A9384600F0B3
S11305A035F8361907462D1B002DEBD106221149CB
S11305B0384600F02BF86946C988814208D10324E3
S11305C064042046FFF738FF411D204600F0FCF884
S11305D000F0FFF80120000300F014F87FB07FB0B2
S11305E0002005B0F0BD0000FBFF07000D00060071
S11305F034120000FE0800000148014A7047000060
S113060078F1FF1F01688D46406880470EE0030AB9
S1130610000203430878584003061B0F43401803A5
S1130620584083B21806C00C5840491C1346521E49
S113063092B2002BEBD1704708B50E2204E0009271
S113064000994B1E0093FBD2401EF8D208BD10B592
S1130650034601E019705B1C521EFBD210BD10B59D
S1130660034603E00C780470401C491C521EF9D266
S1130670184610BDF8B57D4D8446286800280FD172
S11306802846103000234408794E64002788580017
S11306905B1CA41C37521E2BF8DB7548401C2860D9
S11306A0744C20780006FCD520788006800F01D099
S11306B0302020706046E071072801D009281DD140
S11306C0080CA071080A607160462171072815D1D1
S11306D01068000EE0721068000CA0721088000A06
S11306E06072107820725068000EE0735068000C3D
S11306F0A0739088000A60731079207329682046DB
S11307008847207831210840F8BD70B501242403BE
S1130710050B2D03401B4618002229460920FFF72C
S1130720A9FF002801D0012070BD2819A64201D9D3
S1130730311BEDD1002070BDF8B50F004B491546B3
S113074027D0C208D2004607760F4A6047481030C7
S113075000900820841BAC4200D92C464348224612
S11307600830801984463946FFF779FF60460099BE
S11307703F192D1B001988421ED33C4A3B4C0026CE
S1130780083207206168FFF775FF00280AD00120AE
S1130790F8BD48684207520F14D00826C008C000AC
S11307A04860D3E760680822083060602F48FF2162
S11307B00830FFF74CFF03E02C48416809194160F9
S11307C0002DC6D10020F8BD9FE70B460146184610
S11307D045E72A492848C860FEE7F8B5294828496A
S11307E0C1812949C181FF21D331018027482021BA
S11307F04170A82101708179C906FCD48179090767
S1130800890F0229FAD104210171402141718179B2
S11308108906FCD581794906FCD549211C4A8904FD
S113082051602821017081790907890F0329FAD1C0
S1130830184C0126184F656801E0002E07D0E068C7
S1130840A26860280CD028462168FFF708FFA0683A
S113085010344519BC42F0D1FFF762FE0020F8BD08
S113086000212846FFF7F3FEF1E70000C0F0FF1F68
S1130870DCF0FF1F000002400400FA0500ED00E078
S113088020C500000020054028D900000040064093
S11308904080044084000000A4000000754600F07D
S11308A023F8AE46050069465346C008C000854695
S11308B018B020B5FFF7A0FE60BC00274908B64673
S11308C00026C0C5C0C5C0C5C0C5C0C5C0C5C0C55B
S11308D0C0C5403D49008D4670470446C046C046E9
S11308E02046FFF7A2FD00000048704718F1FF1FE3
S11308F001491820ABBEFEE7260002007047A74856
S1070900B6531124B1
S90307DB1A
